{
  "contractName": "Demo",
  "abi": [
    {
      "constant": true,
      "inputs": [],
      "name": "balance",
      "outputs": [
        {
          "name": "",
          "type": "uint256"
        }
      ],
      "payable": false,
      "stateMutability": "view",
      "type": "function"
    },
    {
      "inputs": [],
      "payable": false,
      "stateMutability": "nonpayable",
      "type": "constructor"
    },
    {
      "constant": false,
      "inputs": [],
      "name": "contribute",
      "outputs": [],
      "payable": true,
      "stateMutability": "payable",
      "type": "function"
    }
  ],
  "bytecode": "0x608060405234801561001057600080fd5b506000808190555060c1806100266000396000f3006080604052600436106049576000357c0100000000000000000000000000000000000000000000000000000000900463ffffffff168063b69ef8a814604e578063d7bb99ba146076575b600080fd5b348015605957600080fd5b506060607e565b6040518082815260200191505060405180910390f35b607c6084565b005b60005481565b3460008082825401925050819055505600a165627a7a7230582064568c490e029758f87b73f9cdffc2b6954eba1e9ba99bcdb7cd9cefb672db870029",
  "source": "pragma solidity ^0.4.23;\n\ncontract Demo {\n    uint public balance;\n\n    // Initialize global variables\n    constructor() public\n    {\n        balance = 0;\n    }\n\n    // The payable keyword allows this function to accept Ether\n    function contribute() public payable\n    {\n        // msg.value is the value of Ether sent in a transaction\n        balance += msg.value;\n    }\n}",
  "sourcePath": "/Users/nizzle/Development/CP/Contracts/avnToken/contracts/Demo.sol",
  "compiler": {
    "name": "solc",
    "version": "0.4.23+commit.124ca40d.Emscripten.clang"
  },
  "schemaVersion": "3.4.0",
  "updatedAt": "2021-05-06T17:30:07.428Z",
  "networkType": "ethereum",
  "devdoc": {
    "methods": {}
  },
  "userdoc": {
    "methods": {}
  }
}